{
  "contractName": "EutMusic",
  "abi": [
    {
      "inputs": [
        {
          "internalType": "string",
          "name": "_name",
          "type": "string"
        },
        {
          "internalType": "uint256",
          "name": "saleStart",
          "type": "uint256"
        }
      ],
      "stateMutability": "nonpayable",
      "type": "constructor"
    },
    {
      "anonymous": false,
      "inputs": [
        {
          "indexed": true,
          "internalType": "address",
          "name": "owner",
          "type": "address"
        },
        {
          "indexed": true,
          "internalType": "address",
          "name": "approved",
          "type": "address"
        },
        {
          "indexed": true,
          "internalType": "uint256",
          "name": "tokenId",
          "type": "uint256"
        }
      ],
      "name": "Approval",
      "type": "event"
    },
    {
      "anonymous": false,
      "inputs": [
        {
          "indexed": true,
          "internalType": "address",
          "name": "owner",
          "type": "address"
        },
        {
          "indexed": true,
          "internalType": "address",
          "name": "operator",
          "type": "address"
        },
        {
          "indexed": false,
          "internalType": "bool",
          "name": "approved",
          "type": "bool"
        }
      ],
      "name": "ApprovalForAll",
      "type": "event"
    },
    {
      "anonymous": false,
      "inputs": [
        {
          "indexed": true,
          "internalType": "address",
          "name": "previousOwner",
          "type": "address"
        },
        {
          "indexed": true,
          "internalType": "address",
          "name": "newOwner",
          "type": "address"
        }
      ],
      "name": "OwnershipTransferred",
      "type": "event"
    },
    {
      "anonymous": false,
      "inputs": [
        {
          "indexed": true,
          "internalType": "address",
          "name": "from",
          "type": "address"
        },
        {
          "indexed": true,
          "internalType": "address",
          "name": "to",
          "type": "address"
        },
        {
          "indexed": true,
          "internalType": "uint256",
          "name": "tokenId",
          "type": "uint256"
        }
      ],
      "name": "Transfer",
      "type": "event"
    },
    {
      "anonymous": false,
      "inputs": [
        {
          "indexed": true,
          "internalType": "uint256",
          "name": "_tokenId",
          "type": "uint256"
        },
        {
          "indexed": true,
          "internalType": "uint256",
          "name": "price",
          "type": "uint256"
        }
      ],
      "name": "newOrderGenerated",
      "type": "event"
    },
    {
      "anonymous": false,
      "inputs": [
        {
          "indexed": true,
          "internalType": "uint256",
          "name": "_tokenId",
          "type": "uint256"
        }
      ],
      "name": "newTokenMinted",
      "type": "event"
    },
    {
      "inputs": [
        {
          "internalType": "uint256",
          "name": "",
          "type": "uint256"
        }
      ],
      "name": "_tokenPrices",
      "outputs": [
        {
          "internalType": "uint256",
          "name": "",
          "type": "uint256"
        }
      ],
      "stateMutability": "view",
      "type": "function"
    },
    {
      "inputs": [
        {
          "internalType": "address",
          "name": "to",
          "type": "address"
        },
        {
          "internalType": "uint256",
          "name": "tokenId",
          "type": "uint256"
        }
      ],
      "name": "approve",
      "outputs": [],
      "stateMutability": "nonpayable",
      "type": "function"
    },
    {
      "inputs": [
        {
          "internalType": "address",
          "name": "owner",
          "type": "address"
        }
      ],
      "name": "balanceOf",
      "outputs": [
        {
          "internalType": "uint256",
          "name": "",
          "type": "uint256"
        }
      ],
      "stateMutability": "view",
      "type": "function"
    },
    {
      "inputs": [
        {
          "internalType": "uint256",
          "name": "tokenId",
          "type": "uint256"
        }
      ],
      "name": "getApproved",
      "outputs": [
        {
          "internalType": "address",
          "name": "",
          "type": "address"
        }
      ],
      "stateMutability": "view",
      "type": "function"
    },
    {
      "inputs": [
        {
          "internalType": "address",
          "name": "owner",
          "type": "address"
        },
        {
          "internalType": "address",
          "name": "operator",
          "type": "address"
        }
      ],
      "name": "isApprovedForAll",
      "outputs": [
        {
          "internalType": "bool",
          "name": "",
          "type": "bool"
        }
      ],
      "stateMutability": "view",
      "type": "function"
    },
    {
      "inputs": [],
      "name": "marketIsActive",
      "outputs": [
        {
          "internalType": "bool",
          "name": "",
          "type": "bool"
        }
      ],
      "stateMutability": "view",
      "type": "function"
    },
    {
      "inputs": [],
      "name": "musicTokenSymbol",
      "outputs": [
        {
          "internalType": "string",
          "name": "",
          "type": "string"
        }
      ],
      "stateMutability": "view",
      "type": "function"
    },
    {
      "inputs": [],
      "name": "name",
      "outputs": [
        {
          "internalType": "string",
          "name": "",
          "type": "string"
        }
      ],
      "stateMutability": "view",
      "type": "function"
    },
    {
      "inputs": [],
      "name": "owner",
      "outputs": [
        {
          "internalType": "address",
          "name": "",
          "type": "address"
        }
      ],
      "stateMutability": "view",
      "type": "function"
    },
    {
      "inputs": [
        {
          "internalType": "uint256",
          "name": "tokenId",
          "type": "uint256"
        }
      ],
      "name": "ownerOf",
      "outputs": [
        {
          "internalType": "address",
          "name": "",
          "type": "address"
        }
      ],
      "stateMutability": "view",
      "type": "function"
    },
    {
      "inputs": [],
      "name": "renounceOwnership",
      "outputs": [],
      "stateMutability": "nonpayable",
      "type": "function"
    },
    {
      "inputs": [
        {
          "internalType": "address",
          "name": "from",
          "type": "address"
        },
        {
          "internalType": "address",
          "name": "to",
          "type": "address"
        },
        {
          "internalType": "uint256",
          "name": "tokenId",
          "type": "uint256"
        }
      ],
      "name": "safeTransferFrom",
      "outputs": [],
      "stateMutability": "nonpayable",
      "type": "function"
    },
    {
      "inputs": [
        {
          "internalType": "address",
          "name": "from",
          "type": "address"
        },
        {
          "internalType": "address",
          "name": "to",
          "type": "address"
        },
        {
          "internalType": "uint256",
          "name": "tokenId",
          "type": "uint256"
        },
        {
          "internalType": "bytes",
          "name": "_data",
          "type": "bytes"
        }
      ],
      "name": "safeTransferFrom",
      "outputs": [],
      "stateMutability": "nonpayable",
      "type": "function"
    },
    {
      "inputs": [
        {
          "internalType": "address",
          "name": "operator",
          "type": "address"
        },
        {
          "internalType": "bool",
          "name": "approved",
          "type": "bool"
        }
      ],
      "name": "setApprovalForAll",
      "outputs": [],
      "stateMutability": "nonpayable",
      "type": "function"
    },
    {
      "inputs": [
        {
          "internalType": "bytes4",
          "name": "interfaceId",
          "type": "bytes4"
        }
      ],
      "name": "supportsInterface",
      "outputs": [
        {
          "internalType": "bool",
          "name": "",
          "type": "bool"
        }
      ],
      "stateMutability": "view",
      "type": "function"
    },
    {
      "inputs": [],
      "name": "symbol",
      "outputs": [
        {
          "internalType": "string",
          "name": "",
          "type": "string"
        }
      ],
      "stateMutability": "view",
      "type": "function"
    },
    {
      "inputs": [
        {
          "internalType": "uint256",
          "name": "tokenId",
          "type": "uint256"
        }
      ],
      "name": "tokenURI",
      "outputs": [
        {
          "internalType": "string",
          "name": "",
          "type": "string"
        }
      ],
      "stateMutability": "view",
      "type": "function"
    },
    {
      "inputs": [
        {
          "internalType": "address",
          "name": "from",
          "type": "address"
        },
        {
          "internalType": "address",
          "name": "to",
          "type": "address"
        },
        {
          "internalType": "uint256",
          "name": "tokenId",
          "type": "uint256"
        }
      ],
      "name": "transferFrom",
      "outputs": [],
      "stateMutability": "nonpayable",
      "type": "function"
    },
    {
      "inputs": [
        {
          "internalType": "address",
          "name": "newOwner",
          "type": "address"
        }
      ],
      "name": "transferOwnership",
      "outputs": [],
      "stateMutability": "nonpayable",
      "type": "function"
    },
    {
      "inputs": [],
      "name": "withdraw",
      "outputs": [],
      "stateMutability": "nonpayable",
      "type": "function"
    },
    {
      "inputs": [
        {
          "internalType": "string",
          "name": "baseURI",
          "type": "string"
        }
      ],
      "name": "setBaseURI",
      "outputs": [],
      "stateMutability": "nonpayable",
      "type": "function"
    },
    {
      "inputs": [],
      "name": "flipMarketState",
      "outputs": [],
      "stateMutability": "nonpayable",
      "type": "function"
    },
    {
      "inputs": [],
      "name": "mintNewToken",
      "outputs": [],
      "stateMutability": "payable",
      "type": "function"
    },
    {
      "inputs": [
        {
          "internalType": "uint256",
          "name": "tokenId",
          "type": "uint256"
        }
      ],
      "name": "getEutMusicUrl",
      "outputs": [
        {
          "internalType": "string",
          "name": "",
          "type": "string"
        }
      ],
      "stateMutability": "view",
      "type": "function"
    },
    {
      "inputs": [
        {
          "internalType": "uint256",
          "name": "tokenId",
          "type": "uint256"
        }
      ],
      "name": "getOwnerByTokenId",
      "outputs": [
        {
          "internalType": "address",
          "name": "",
          "type": "address"
        }
      ],
      "stateMutability": "view",
      "type": "function"
    },
    {
      "inputs": [
        {
          "internalType": "uint256",
          "name": "tokenId",
          "type": "uint256"
        }
      ],
      "name": "getPriceByTokenId",
      "outputs": [
        {
          "internalType": "uint256",
          "name": "",
          "type": "uint256"
        }
      ],
      "stateMutability": "view",
      "type": "function"
    },
    {
      "inputs": [
        {
          "internalType": "address",
          "name": "_to",
          "type": "address"
        },
        {
          "internalType": "uint256",
          "name": "tokenId",
          "type": "uint256"
        }
      ],
      "name": "airDropInitialOwner",
      "outputs": [],
      "stateMutability": "nonpayable",
      "type": "function"
    },
    {
      "inputs": [
        {
          "internalType": "uint256",
          "name": "tokenId",
          "type": "uint256"
        },
        {
          "internalType": "uint256",
          "name": "price",
          "type": "uint256"
        }
      ],
      "name": "placeSecondaryMarketOrder",
      "outputs": [],
      "stateMutability": "nonpayable",
      "type": "function"
    },
    {
      "inputs": [
        {
          "internalType": "uint256",
          "name": "tokenId",
          "type": "uint256"
        },
        {
          "internalType": "uint256",
          "name": "price",
          "type": "uint256"
        }
      ],
      "name": "updateOrderPriceByContractOwner",
      "outputs": [],
      "stateMutability": "nonpayable",
      "type": "function"
    },
    {
      "inputs": [
        {
          "internalType": "uint256",
          "name": "tokenId",
          "type": "uint256"
        }
      ],
      "name": "cancelOrderByContractOwner",
      "outputs": [],
      "stateMutability": "nonpayable",
      "type": "function"
    },
    {
      "inputs": [
        {
          "internalType": "uint256",
          "name": "tokenId",
          "type": "uint256"
        }
      ],
      "name": "acceptSecondaryMarketOrder",
      "outputs": [],
      "stateMutability": "payable",
      "type": "function"
    }
  ],
  "bytecode": "0x60806040526000600660146101000a81548160ff0219169083151502179055503480156200002c57600080fd5b5060405162004529380380620045298339818101604052810190620000529190620003e8565b816040518060400160405280600381526020017f45544800000000000000000000000000000000000000000000000000000000008152508160009080519060200190620000a1929190620002af565b508060019080519060200190620000ba929190620002af565b505050620000dd620000d1620000fc60201b60201c565b6200010460201b60201c565b620000ed620001ca60201b60201c565b80600981905550505062000659565b600033905090565b6000600660009054906101000a900473ffffffffffffffffffffffffffffffffffffffff16905081600660006101000a81548173ffffffffffffffffffffffffffffffffffffffff021916908373ffffffffffffffffffffffffffffffffffffffff1602179055508173ffffffffffffffffffffffffffffffffffffffff168173ffffffffffffffffffffffffffffffffffffffff167f8be0079c531659141344cd1fd0a4f28419497f9722a3daafe3b4186f6b6457e060405160405180910390a35050565b620001da620000fc60201b60201c565b73ffffffffffffffffffffffffffffffffffffffff16620002006200028560201b60201c565b73ffffffffffffffffffffffffffffffffffffffff161462000259576040517f08c379a0000000000000000000000000000000000000000000000000000000008152600401620002509062000469565b60405180910390fd5b600660149054906101000a900460ff1615600660146101000a81548160ff021916908315150217905550565b6000600660009054906101000a900473ffffffffffffffffffffffffffffffffffffffff16905090565b828054620002bd906200053b565b90600052602060002090601f016020900481019282620002e157600085556200032d565b82601f10620002fc57805160ff19168380011785556200032d565b828001600101855582156200032d579182015b828111156200032c5782518255916020019190600101906200030f565b5b5090506200033c919062000340565b5090565b5b808211156200035b57600081600090555060010162000341565b5090565b6000620003766200037084620004b4565b6200048b565b9050828152602081018484840111156200038f57600080fd5b6200039c84828562000505565b509392505050565b600082601f830112620003b657600080fd5b8151620003c88482602086016200035f565b91505092915050565b600081519050620003e2816200063f565b92915050565b60008060408385031215620003fc57600080fd5b600083015167ffffffffffffffff8111156200041757600080fd5b6200042585828601620003a4565b92505060206200043885828601620003d1565b9150509250929050565b600062000451602083620004ea565b91506200045e8262000616565b602082019050919050565b60006020820190508181036000830152620004848162000442565b9050919050565b600062000497620004aa565b9050620004a5828262000571565b919050565b6000604051905090565b600067ffffffffffffffff821115620004d257620004d1620005d6565b5b620004dd8262000605565b9050602081019050919050565b600082825260208201905092915050565b6000819050919050565b60005b838110156200052557808201518184015260208101905062000508565b8381111562000535576000848401525b50505050565b600060028204905060018216806200055457607f821691505b602082108114156200056b576200056a620005a7565b5b50919050565b6200057c8262000605565b810181811067ffffffffffffffff821117156200059e576200059d620005d6565b5b80604052505050565b7f4e487b7100000000000000000000000000000000000000000000000000000000600052602260045260246000fd5b7f4e487b7100000000000000000000000000000000000000000000000000000000600052604160045260246000fd5b6000601f19601f8301169050919050565b7f4f776e61626c653a2063616c6c6572206973206e6f7420746865206f776e6572600082015250565b6200064a81620004fb565b81146200065657600080fd5b50565b613ec080620006696000396000f3fe6080604052600436106101d85760003560e01c806370a0823111610102578063a22cb46511610095578063c7448ab511610064578063c7448ab514610676578063c87b56dd146106a1578063e985e9c5146106de578063f2fde38b1461071b576101d8565b8063a22cb465146105be578063aa3b13d0146105e7578063b88d4fde14610624578063bb16ffc21461064d576101d8565b806390e75fd4116100d157806390e75fd4146104fd57806395d89b411461051957806398e7f04c1461054457806399899d1214610581576101d8565b806370a0823114610474578063715018a6146104b157806374f10479146104c85780638da5cb5b146104d2576101d8565b806323b872dd1161017a57806342842e0e1161014957806342842e0e146103ba57806348a8f345146103e357806355f804b31461040e5780636352211e14610437576101d8565b806323b872dd1461032657806337c0ba291461034f5780633ccfd60b14610366578063410e58ea1461037d576101d8565b8063081812fc116101b6578063081812fc1461026e578063092dd2d9146102ab578063095ea7b3146102d457806309bd4bbe146102fd576101d8565b806301ffc9a7146101dd5780630351db6d1461021a57806306fdde0314610243575b600080fd5b3480156101e957600080fd5b5061020460048036038101906101ff9190612c68565b610744565b60405161021191906131bd565b60405180910390f35b34801561022657600080fd5b50610241600480360381019061023c9190612cfb565b610826565b005b34801561024f57600080fd5b50610258610955565b60405161026591906131d8565b60405180910390f35b34801561027a57600080fd5b5061029560048036038101906102909190612cfb565b6109e7565b6040516102a29190613156565b60405180910390f35b3480156102b757600080fd5b506102d260048036038101906102cd9190612c2c565b610a6c565b005b3480156102e057600080fd5b506102fb60048036038101906102f69190612c2c565b610c04565b005b34801561030957600080fd5b50610324600480360381019061031f9190612d24565b610d1c565b005b34801561033257600080fd5b5061034d60048036038101906103489190612b26565b610e73565b005b34801561035b57600080fd5b50610364610ed3565b005b34801561037257600080fd5b5061037b610f7b565b005b34801561038957600080fd5b506103a4600480360381019061039f9190612cfb565b611046565b6040516103b191906131d8565b60405180910390f35b3480156103c657600080fd5b506103e160048036038101906103dc9190612b26565b611058565b005b3480156103ef57600080fd5b506103f8611078565b60405161040591906131bd565b60405180910390f35b34801561041a57600080fd5b5061043560048036038101906104309190612cba565b61108b565b005b34801561044357600080fd5b5061045e60048036038101906104599190612cfb565b611121565b60405161046b9190613156565b60405180910390f35b34801561048057600080fd5b5061049b60048036038101906104969190612ac1565b6111d3565b6040516104a891906134ba565b60405180910390f35b3480156104bd57600080fd5b506104c661128b565b005b6104d0611313565b005b3480156104de57600080fd5b506104e7611448565b6040516104f49190613156565b60405180910390f35b61051760048036038101906105129190612cfb565b611472565b005b34801561052557600080fd5b5061052e611638565b60405161053b91906131d8565b60405180910390f35b34801561055057600080fd5b5061056b60048036038101906105669190612cfb565b6116ca565b6040516105789190613156565b60405180910390f35b34801561058d57600080fd5b506105a860048036038101906105a39190612cfb565b6116dc565b6040516105b591906134ba565b60405180910390f35b3480156105ca57600080fd5b506105e560048036038101906105e09190612bf0565b6116f9565b005b3480156105f357600080fd5b5061060e60048036038101906106099190612cfb565b61170f565b60405161061b91906134ba565b60405180910390f35b34801561063057600080fd5b5061064b60048036038101906106469190612b75565b611727565b005b34801561065957600080fd5b50610674600480360381019061066f9190612d24565b611789565b005b34801561068257600080fd5b5061068b6118b8565b60405161069891906131d8565b60405180910390f35b3480156106ad57600080fd5b506106c860048036038101906106c39190612cfb565b6118f1565b6040516106d591906131d8565b60405180910390f35b3480156106ea57600080fd5b5061070560048036038101906107009190612aea565b611998565b60405161071291906131bd565b60405180910390f35b34801561072757600080fd5b50610742600480360381019061073d9190612ac1565b611a2c565b005b60007f80ac58cd000000000000000000000000000000000000000000000000000000007bffffffffffffffffffffffffffffffffffffffffffffffffffffffff1916827bffffffffffffffffffffffffffffffffffffffffffffffffffffffff1916148061080f57507f5b5e139f000000000000000000000000000000000000000000000000000000007bffffffffffffffffffffffffffffffffffffffffffffffffffffffff1916827bffffffffffffffffffffffffffffffffffffffffffffffffffffffff1916145b8061081f575061081e82611b24565b5b9050919050565b61082e611b8e565b73ffffffffffffffffffffffffffffffffffffffff1661084c611448565b73ffffffffffffffffffffffffffffffffffffffff16146108a2576040517f08c379a00000000000000000000000000000000000000000000000000000000081526004016108999061341a565b60405180910390fd5b600660149054906101000a900460ff166108f1576040517f08c379a00000000000000000000000000000000000000000000000000000000081526004016108e89061333a565b60405180910390fd5b6108fa81611b96565b610939576040517f08c379a0000000000000000000000000000000000000000000000000000000008152600401610930906133fa565b60405180910390fd5b6000600760008381526020019081526020016000208190555050565b60606000805461096490613710565b80601f016020809104026020016040519081016040528092919081815260200182805461099090613710565b80156109dd5780601f106109b2576101008083540402835291602001916109dd565b820191906000526020600020905b8154815290600101906020018083116109c057829003601f168201915b5050505050905090565b60006109f282611b96565b610a31576040517f08c379a0000000000000000000000000000000000000000000000000000000008152600401610a28906133da565b60405180910390fd5b6004600083815260200190815260200160002060009054906101000a900473ffffffffffffffffffffffffffffffffffffffff169050919050565b610a74611b8e565b73ffffffffffffffffffffffffffffffffffffffff16610a92611448565b73ffffffffffffffffffffffffffffffffffffffff1614610ae8576040517f08c379a0000000000000000000000000000000000000000000000000000000008152600401610adf9061341a565b60405180910390fd5b600660149054906101000a900460ff16610b37576040517f08c379a0000000000000000000000000000000000000000000000000000000008152600401610b2e9061333a565b60405180910390fd5b610b4081611b96565b610b7f576040517f08c379a0000000000000000000000000000000000000000000000000000000008152600401610b76906133fa565b60405180910390fd5b610b88816116ca565b73ffffffffffffffffffffffffffffffffffffffff163373ffffffffffffffffffffffffffffffffffffffff1614610bf5576040517f08c379a0000000000000000000000000000000000000000000000000000000008152600401610bec9061345a565b60405180910390fd5b610c00338383611c02565b5050565b6000610c0f82611121565b90508073ffffffffffffffffffffffffffffffffffffffff168373ffffffffffffffffffffffffffffffffffffffff161415610c80576040517f08c379a0000000000000000000000000000000000000000000000000000000008152600401610c779061347a565b60405180910390fd5b8073ffffffffffffffffffffffffffffffffffffffff16610c9f611b8e565b73ffffffffffffffffffffffffffffffffffffffff161480610cce5750610ccd81610cc8611b8e565b611998565b5b610d0d576040517f08c379a0000000000000000000000000000000000000000000000000000000008152600401610d049061335a565b60405180910390fd5b610d178383611e69565b505050565b600660149054906101000a900460ff16610d6b576040517f08c379a0000000000000000000000000000000000000000000000000000000008152600401610d629061333a565b60405180910390fd5b610d7482611b96565b610db3576040517f08c379a0000000000000000000000000000000000000000000000000000000008152600401610daa906133fa565b60405180910390fd5b610dbc826116ca565b73ffffffffffffffffffffffffffffffffffffffff163373ffffffffffffffffffffffffffffffffffffffff1614610e29576040517f08c379a0000000000000000000000000000000000000000000000000000000008152600401610e20906131fa565b60405180910390fd5b80600760008481526020019081526020016000208190555080827f4585e745074b427af20ac0c9879cbf9894b3c3e12cb35ac06ff1f6d7a573883060405160405180910390a35050565b610e84610e7e611b8e565b82611f22565b610ec3576040517f08c379a0000000000000000000000000000000000000000000000000000000008152600401610eba9061349a565b60405180910390fd5b610ece838383611c02565b505050565b610edb611b8e565b73ffffffffffffffffffffffffffffffffffffffff16610ef9611448565b73ffffffffffffffffffffffffffffffffffffffff1614610f4f576040517f08c379a0000000000000000000000000000000000000000000000000000000008152600401610f469061341a565b60405180910390fd5b600660149054906101000a900460ff1615600660146101000a81548160ff021916908315150217905550565b610f83611b8e565b73ffffffffffffffffffffffffffffffffffffffff16610fa1611448565b73ffffffffffffffffffffffffffffffffffffffff1614610ff7576040517f08c379a0000000000000000000000000000000000000000000000000000000008152600401610fee9061341a565b60405180910390fd5b60004790503373ffffffffffffffffffffffffffffffffffffffff166108fc829081150290604051600060405180830381858888f19350505050158015611042573d6000803e3d6000fd5b5050565b6060611051826118f1565b9050919050565b61107383838360405180602001604052806000815250611727565b505050565b600660149054906101000a900460ff1681565b611093611b8e565b73ffffffffffffffffffffffffffffffffffffffff166110b1611448565b73ffffffffffffffffffffffffffffffffffffffff1614611107576040517f08c379a00000000000000000000000000000000000000000000000000000000081526004016110fe9061341a565b60405180910390fd5b806008908051906020019061111d9291906128e5565b5050565b6000806002600084815260200190815260200160002060009054906101000a900473ffffffffffffffffffffffffffffffffffffffff169050600073ffffffffffffffffffffffffffffffffffffffff168173ffffffffffffffffffffffffffffffffffffffff1614156111ca576040517f08c379a00000000000000000000000000000000000000000000000000000000081526004016111c19061339a565b60405180910390fd5b80915050919050565b60008073ffffffffffffffffffffffffffffffffffffffff168273ffffffffffffffffffffffffffffffffffffffff161415611244576040517f08c379a000000000000000000000000000000000000000000000000000000000815260040161123b9061337a565b60405180910390fd5b600360008373ffffffffffffffffffffffffffffffffffffffff1673ffffffffffffffffffffffffffffffffffffffff168152602001908152602001600020549050919050565b611293611b8e565b73ffffffffffffffffffffffffffffffffffffffff166112b1611448565b73ffffffffffffffffffffffffffffffffffffffff1614611307576040517f08c379a00000000000000000000000000000000000000000000000000000000081526004016112fe9061341a565b60405180910390fd5b6113116000612000565b565b61131b611b8e565b73ffffffffffffffffffffffffffffffffffffffff16611339611448565b73ffffffffffffffffffffffffffffffffffffffff161461138f576040517f08c379a00000000000000000000000000000000000000000000000000000000081526004016113869061341a565b60405180910390fd5b600660149054906101000a900460ff166113de576040517f08c379a00000000000000000000000000000000000000000000000000000000081526004016113d59061333a565b60405180910390fd5b600060095490506113ef33826120c6565b6000600760008381526020019081526020016000208190555060096000815460010191905081905550807fb8c7997ddf4bbbf0c6f634ec98f43e1e43551d3cdbf37cbf6b11a5b3d6d4708460405160405180910390a250565b6000600660009054906101000a900473ffffffffffffffffffffffffffffffffffffffff16905090565b600660149054906101000a900460ff166114c1576040517f08c379a00000000000000000000000000000000000000000000000000000000081526004016114b89061333a565b60405180910390fd5b600033905060006114d1836116ca565b90506114dc83611b96565b61151b576040517f08c379a0000000000000000000000000000000000000000000000000000000008152600401611512906133fa565b60405180910390fd5b600060076000858152602001908152602001600020541415611572576040517f08c379a0000000000000000000000000000000000000000000000000000000008152600401611569906132fa565b60405180910390fd5b60076000848152602001908152602001600020543410156115c8576040517f08c379a00000000000000000000000000000000000000000000000000000000081526004016115bf9061329a565b60405180910390fd5b6115d3818385611c02565b600060076000858152602001908152602001600020819055508073ffffffffffffffffffffffffffffffffffffffff166108fc349081150290604051600060405180830381858888f19350505050158015611632573d6000803e3d6000fd5b50505050565b60606001805461164790613710565b80601f016020809104026020016040519081016040528092919081815260200182805461167390613710565b80156116c05780601f10611695576101008083540402835291602001916116c0565b820191906000526020600020905b8154815290600101906020018083116116a357829003601f168201915b5050505050905090565b60006116d582611121565b9050919050565b600060076000838152602001908152602001600020549050919050565b61170b611704611b8e565b83836120e4565b5050565b60076020528060005260406000206000915090505481565b611738611732611b8e565b83611f22565b611777576040517f08c379a000000000000000000000000000000000000000000000000000000000815260040161176e9061349a565b60405180910390fd5b61178384848484612251565b50505050565b611791611b8e565b73ffffffffffffffffffffffffffffffffffffffff166117af611448565b73ffffffffffffffffffffffffffffffffffffffff1614611805576040517f08c379a00000000000000000000000000000000000000000000000000000000081526004016117fc9061341a565b60405180910390fd5b600660149054906101000a900460ff16611854576040517f08c379a000000000000000000000000000000000000000000000000000000000815260040161184b9061333a565b60405180910390fd5b61185d82611b96565b61189c576040517f08c379a0000000000000000000000000000000000000000000000000000000008152600401611893906133fa565b60405180910390fd5b8060076000848152602001908152602001600020819055505050565b6040518060400160405280600381526020017f455448000000000000000000000000000000000000000000000000000000000081525081565b60606118fc82611b96565b61193b576040517f08c379a00000000000000000000000000000000000000000000000000000000081526004016119329061343a565b60405180910390fd5b60006119456122ad565b905060008151116119655760405180602001604052806000815250611990565b8061196f8461233f565b604051602001611980929190613132565b6040516020818303038152906040525b915050919050565b6000600560008473ffffffffffffffffffffffffffffffffffffffff1673ffffffffffffffffffffffffffffffffffffffff16815260200190815260200160002060008373ffffffffffffffffffffffffffffffffffffffff1673ffffffffffffffffffffffffffffffffffffffff16815260200190815260200160002060009054906101000a900460ff16905092915050565b611a34611b8e565b73ffffffffffffffffffffffffffffffffffffffff16611a52611448565b73ffffffffffffffffffffffffffffffffffffffff1614611aa8576040517f08c379a0000000000000000000000000000000000000000000000000000000008152600401611a9f9061341a565b60405180910390fd5b600073ffffffffffffffffffffffffffffffffffffffff168173ffffffffffffffffffffffffffffffffffffffff161415611b18576040517f08c379a0000000000000000000000000000000000000000000000000000000008152600401611b0f9061323a565b60405180910390fd5b611b2181612000565b50565b60007f01ffc9a7000000000000000000000000000000000000000000000000000000007bffffffffffffffffffffffffffffffffffffffffffffffffffffffff1916827bffffffffffffffffffffffffffffffffffffffffffffffffffffffff1916149050919050565b600033905090565b60008073ffffffffffffffffffffffffffffffffffffffff166002600084815260200190815260200160002060009054906101000a900473ffffffffffffffffffffffffffffffffffffffff1673ffffffffffffffffffffffffffffffffffffffff1614159050919050565b8273ffffffffffffffffffffffffffffffffffffffff16611c2282611121565b73ffffffffffffffffffffffffffffffffffffffff1614611c78576040517f08c379a0000000000000000000000000000000000000000000000000000000008152600401611c6f9061325a565b60405180910390fd5b600073ffffffffffffffffffffffffffffffffffffffff168273ffffffffffffffffffffffffffffffffffffffff161415611ce8576040517f08c379a0000000000000000000000000000000000000000000000000000000008152600401611cdf906132ba565b60405180910390fd5b611cf38383836124ec565b611cfe600082611e69565b6001600360008573ffffffffffffffffffffffffffffffffffffffff1673ffffffffffffffffffffffffffffffffffffffff1681526020019081526020016000206000828254611d4e9190613626565b925050819055506001600360008473ffffffffffffffffffffffffffffffffffffffff1673ffffffffffffffffffffffffffffffffffffffff1681526020019081526020016000206000828254611da5919061359f565b92505081905550816002600083815260200190815260200160002060006101000a81548173ffffffffffffffffffffffffffffffffffffffff021916908373ffffffffffffffffffffffffffffffffffffffff160217905550808273ffffffffffffffffffffffffffffffffffffffff168473ffffffffffffffffffffffffffffffffffffffff167fddf252ad1be2c89b69c2b068fc378daa952ba7f163c4a11628f55a4df523b3ef60405160405180910390a4611e648383836124f1565b505050565b816004600083815260200190815260200160002060006101000a81548173ffffffffffffffffffffffffffffffffffffffff021916908373ffffffffffffffffffffffffffffffffffffffff160217905550808273ffffffffffffffffffffffffffffffffffffffff16611edc83611121565b73ffffffffffffffffffffffffffffffffffffffff167f8c5be1e5ebec7d5bd14f71427d1e84f3dd0314c0f7b2291e5b200ac8c7c3b92560405160405180910390a45050565b6000611f2d82611b96565b611f6c576040517f08c379a0000000000000000000000000000000000000000000000000000000008152600401611f639061331a565b60405180910390fd5b6000611f7783611121565b90508073ffffffffffffffffffffffffffffffffffffffff168473ffffffffffffffffffffffffffffffffffffffff161480611fb95750611fb88185611998565b5b80611ff757508373ffffffffffffffffffffffffffffffffffffffff16611fdf846109e7565b73ffffffffffffffffffffffffffffffffffffffff16145b91505092915050565b6000600660009054906101000a900473ffffffffffffffffffffffffffffffffffffffff16905081600660006101000a81548173ffffffffffffffffffffffffffffffffffffffff021916908373ffffffffffffffffffffffffffffffffffffffff1602179055508173ffffffffffffffffffffffffffffffffffffffff168173ffffffffffffffffffffffffffffffffffffffff167f8be0079c531659141344cd1fd0a4f28419497f9722a3daafe3b4186f6b6457e060405160405180910390a35050565b6120e08282604051806020016040528060008152506124f6565b5050565b8173ffffffffffffffffffffffffffffffffffffffff168373ffffffffffffffffffffffffffffffffffffffff161415612153576040517f08c379a000000000000000000000000000000000000000000000000000000000815260040161214a906132da565b60405180910390fd5b80600560008573ffffffffffffffffffffffffffffffffffffffff1673ffffffffffffffffffffffffffffffffffffffff16815260200190815260200160002060008473ffffffffffffffffffffffffffffffffffffffff1673ffffffffffffffffffffffffffffffffffffffff16815260200190815260200160002060006101000a81548160ff0219169083151502179055508173ffffffffffffffffffffffffffffffffffffffff168373ffffffffffffffffffffffffffffffffffffffff167f17307eab39ab6107e8899845ad3d59bd9653f200f220920489ca2b5937696c318360405161224491906131bd565b60405180910390a3505050565b61225c848484611c02565b61226884848484612551565b6122a7576040517f08c379a000000000000000000000000000000000000000000000000000000000815260040161229e9061321a565b60405180910390fd5b50505050565b6060600880546122bc90613710565b80601f01602080910402602001604051908101604052809291908181526020018280546122e890613710565b80156123355780601f1061230a57610100808354040283529160200191612335565b820191906000526020600020905b81548152906001019060200180831161231857829003601f168201915b5050505050905090565b60606000821415612387576040518060400160405280600181526020017f300000000000000000000000000000000000000000000000000000000000000081525090506124e7565b600082905060005b600082146123b95780806123a290613773565b915050600a826123b291906135f5565b915061238f565b60008167ffffffffffffffff8111156123fb577f4e487b7100000000000000000000000000000000000000000000000000000000600052604160045260246000fd5b6040519080825280601f01601f19166020018201604052801561242d5781602001600182028036833780820191505090505b5090505b600085146124e0576001826124469190613626565b9150600a8561245591906137bc565b6030612461919061359f565b60f81b81838151811061249d577f4e487b7100000000000000000000000000000000000000000000000000000000600052603260045260246000fd5b60200101907effffffffffffffffffffffffffffffffffffffffffffffffffffffffffffff1916908160001a905350600a856124d991906135f5565b9450612431565b8093505050505b919050565b505050565b505050565b61250083836126e8565b61250d6000848484612551565b61254c576040517f08c379a00000000000000000000000000000000000000000000000000000000081526004016125439061321a565b60405180910390fd5b505050565b60006125728473ffffffffffffffffffffffffffffffffffffffff166128c2565b156126db578373ffffffffffffffffffffffffffffffffffffffff1663150b7a0261259b611b8e565b8786866040518563ffffffff1660e01b81526004016125bd9493929190613171565b602060405180830381600087803b1580156125d757600080fd5b505af192505050801561260857506040513d601f19601f820116820180604052508101906126059190612c91565b60015b61268b573d8060008114612638576040519150601f19603f3d011682016040523d82523d6000602084013e61263d565b606091505b50600081511415612683576040517f08c379a000000000000000000000000000000000000000000000000000000000815260040161267a9061321a565b60405180910390fd5b805181602001fd5b63150b7a0260e01b7bffffffffffffffffffffffffffffffffffffffffffffffffffffffff1916817bffffffffffffffffffffffffffffffffffffffffffffffffffffffff1916149150506126e0565b600190505b949350505050565b600073ffffffffffffffffffffffffffffffffffffffff168273ffffffffffffffffffffffffffffffffffffffff161415612758576040517f08c379a000000000000000000000000000000000000000000000000000000000815260040161274f906133ba565b60405180910390fd5b61276181611b96565b156127a1576040517f08c379a00000000000000000000000000000000000000000000000000000000081526004016127989061327a565b60405180910390fd5b6127ad600083836124ec565b6001600360008473ffffffffffffffffffffffffffffffffffffffff1673ffffffffffffffffffffffffffffffffffffffff16815260200190815260200160002060008282546127fd919061359f565b92505081905550816002600083815260200190815260200160002060006101000a81548173ffffffffffffffffffffffffffffffffffffffff021916908373ffffffffffffffffffffffffffffffffffffffff160217905550808273ffffffffffffffffffffffffffffffffffffffff16600073ffffffffffffffffffffffffffffffffffffffff167fddf252ad1be2c89b69c2b068fc378daa952ba7f163c4a11628f55a4df523b3ef60405160405180910390a46128be600083836124f1565b5050565b6000808273ffffffffffffffffffffffffffffffffffffffff163b119050919050565b8280546128f190613710565b90600052602060002090601f016020900481019282612913576000855561295a565b82601f1061292c57805160ff191683800117855561295a565b8280016001018555821561295a579182015b8281111561295957825182559160200191906001019061293e565b5b509050612967919061296b565b5090565b5b8082111561298457600081600090555060010161296c565b5090565b600061299b612996846134fa565b6134d5565b9050828152602081018484840111156129b357600080fd5b6129be8482856136ce565b509392505050565b60006129d96129d48461352b565b6134d5565b9050828152602081018484840111156129f157600080fd5b6129fc8482856136ce565b509392505050565b600081359050612a1381613e2e565b92915050565b600081359050612a2881613e45565b92915050565b600081359050612a3d81613e5c565b92915050565b600081519050612a5281613e5c565b92915050565b600082601f830112612a6957600080fd5b8135612a79848260208601612988565b91505092915050565b600082601f830112612a9357600080fd5b8135612aa38482602086016129c6565b91505092915050565b600081359050612abb81613e73565b92915050565b600060208284031215612ad357600080fd5b6000612ae184828501612a04565b91505092915050565b60008060408385031215612afd57600080fd5b6000612b0b85828601612a04565b9250506020612b1c85828601612a04565b9150509250929050565b600080600060608486031215612b3b57600080fd5b6000612b4986828701612a04565b9350506020612b5a86828701612a04565b9250506040612b6b86828701612aac565b9150509250925092565b60008060008060808587031215612b8b57600080fd5b6000612b9987828801612a04565b9450506020612baa87828801612a04565b9350506040612bbb87828801612aac565b925050606085013567ffffffffffffffff811115612bd857600080fd5b612be487828801612a58565b91505092959194509250565b60008060408385031215612c0357600080fd5b6000612c1185828601612a04565b9250506020612c2285828601612a19565b9150509250929050565b60008060408385031215612c3f57600080fd5b6000612c4d85828601612a04565b9250506020612c5e85828601612aac565b9150509250929050565b600060208284031215612c7a57600080fd5b6000612c8884828501612a2e565b91505092915050565b600060208284031215612ca357600080fd5b6000612cb184828501612a43565b91505092915050565b600060208284031215612ccc57600080fd5b600082013567ffffffffffffffff811115612ce657600080fd5b612cf284828501612a82565b91505092915050565b600060208284031215612d0d57600080fd5b6000612d1b84828501612aac565b91505092915050565b60008060408385031215612d3757600080fd5b6000612d4585828601612aac565b9250506020612d5685828601612aac565b9150509250929050565b612d698161365a565b82525050565b612d788161366c565b82525050565b6000612d898261355c565b612d938185613572565b9350612da38185602086016136dd565b612dac816138a9565b840191505092915050565b6000612dc282613567565b612dcc8185613583565b9350612ddc8185602086016136dd565b612de5816138a9565b840191505092915050565b6000612dfb82613567565b612e058185613594565b9350612e158185602086016136dd565b80840191505092915050565b6000612e2e601a83613583565b9150612e39826138ba565b602082019050919050565b6000612e51603283613583565b9150612e5c826138e3565b604082019050919050565b6000612e74602683613583565b9150612e7f82613932565b604082019050919050565b6000612e97602583613583565b9150612ea282613981565b604082019050919050565b6000612eba601c83613583565b9150612ec5826139d0565b602082019050919050565b6000612edd601683613583565b9150612ee8826139f9565b602082019050919050565b6000612f00602483613583565b9150612f0b82613a22565b604082019050919050565b6000612f23601983613583565b9150612f2e82613a71565b602082019050919050565b6000612f46601183613583565b9150612f5182613a9a565b602082019050919050565b6000612f69602c83613583565b9150612f7482613ac3565b604082019050919050565b6000612f8c601983613583565b9150612f9782613b12565b602082019050919050565b6000612faf603883613583565b9150612fba82613b3b565b604082019050919050565b6000612fd2602a83613583565b9150612fdd82613b8a565b604082019050919050565b6000612ff5602983613583565b915061300082613bd9565b604082019050919050565b6000613018602083613583565b915061302382613c28565b602082019050919050565b600061303b602c83613583565b915061304682613c51565b604082019050919050565b600061305e601c83613583565b915061306982613ca0565b602082019050919050565b6000613081602083613583565b915061308c82613cc9565b602082019050919050565b60006130a4602f83613583565b91506130af82613cf2565b604082019050919050565b60006130c7602483613583565b91506130d282613d41565b604082019050919050565b60006130ea602183613583565b91506130f582613d90565b604082019050919050565b600061310d603183613583565b915061311882613ddf565b604082019050919050565b61312c816136c4565b82525050565b600061313e8285612df0565b915061314a8284612df0565b91508190509392505050565b600060208201905061316b6000830184612d60565b92915050565b60006080820190506131866000830187612d60565b6131936020830186612d60565b6131a06040830185613123565b81810360608301526131b28184612d7e565b905095945050505050565b60006020820190506131d26000830184612d6f565b92915050565b600060208201905081810360008301526131f28184612db7565b905092915050565b6000602082019050818103600083015261321381612e21565b9050919050565b6000602082019050818103600083015261323381612e44565b9050919050565b6000602082019050818103600083015261325381612e67565b9050919050565b6000602082019050818103600083015261327381612e8a565b9050919050565b6000602082019050818103600083015261329381612ead565b9050919050565b600060208201905081810360008301526132b381612ed0565b9050919050565b600060208201905081810360008301526132d381612ef3565b9050919050565b600060208201905081810360008301526132f381612f16565b9050919050565b6000602082019050818103600083015261331381612f39565b9050919050565b6000602082019050818103600083015261333381612f5c565b9050919050565b6000602082019050818103600083015261335381612f7f565b9050919050565b6000602082019050818103600083015261337381612fa2565b9050919050565b6000602082019050818103600083015261339381612fc5565b9050919050565b600060208201905081810360008301526133b381612fe8565b9050919050565b600060208201905081810360008301526133d38161300b565b9050919050565b600060208201905081810360008301526133f38161302e565b9050919050565b6000602082019050818103600083015261341381613051565b9050919050565b6000602082019050818103600083015261343381613074565b9050919050565b6000602082019050818103600083015261345381613097565b9050919050565b60006020820190508181036000830152613473816130ba565b9050919050565b60006020820190508181036000830152613493816130dd565b9050919050565b600060208201905081810360008301526134b381613100565b9050919050565b60006020820190506134cf6000830184613123565b92915050565b60006134df6134f0565b90506134eb8282613742565b919050565b6000604051905090565b600067ffffffffffffffff8211156135155761351461387a565b5b61351e826138a9565b9050602081019050919050565b600067ffffffffffffffff8211156135465761354561387a565b5b61354f826138a9565b9050602081019050919050565b600081519050919050565b600081519050919050565b600082825260208201905092915050565b600082825260208201905092915050565b600081905092915050565b60006135aa826136c4565b91506135b5836136c4565b9250827fffffffffffffffffffffffffffffffffffffffffffffffffffffffffffffffff038211156135ea576135e96137ed565b5b828201905092915050565b6000613600826136c4565b915061360b836136c4565b92508261361b5761361a61381c565b5b828204905092915050565b6000613631826136c4565b915061363c836136c4565b92508282101561364f5761364e6137ed565b5b828203905092915050565b6000613665826136a4565b9050919050565b60008115159050919050565b60007fffffffff0000000000000000000000000000000000000000000000000000000082169050919050565b600073ffffffffffffffffffffffffffffffffffffffff82169050919050565b6000819050919050565b82818337600083830152505050565b60005b838110156136fb5780820151818401526020810190506136e0565b8381111561370a576000848401525b50505050565b6000600282049050600182168061372857607f821691505b6020821081141561373c5761373b61384b565b5b50919050565b61374b826138a9565b810181811067ffffffffffffffff8211171561376a5761376961387a565b5b80604052505050565b600061377e826136c4565b91507fffffffffffffffffffffffffffffffffffffffffffffffffffffffffffffffff8214156137b1576137b06137ed565b5b600182019050919050565b60006137c7826136c4565b91506137d2836136c4565b9250826137e2576137e161381c565b5b828206905092915050565b7f4e487b7100000000000000000000000000000000000000000000000000000000600052601160045260246000fd5b7f4e487b7100000000000000000000000000000000000000000000000000000000600052601260045260246000fd5b7f4e487b7100000000000000000000000000000000000000000000000000000000600052602260045260246000fd5b7f4e487b7100000000000000000000000000000000000000000000000000000000600052604160045260246000fd5b6000601f19601f8301169050919050565b7f4f6e6c7920746865206f776e657220636f756c642073656c6c2e000000000000600082015250565b7f4552433732313a207472616e7366657220746f206e6f6e20455243373231526560008201527f63656976657220696d706c656d656e7465720000000000000000000000000000602082015250565b7f4f776e61626c653a206e6577206f776e657220697320746865207a65726f206160008201527f6464726573730000000000000000000000000000000000000000000000000000602082015250565b7f4552433732313a207472616e736665722066726f6d20696e636f72726563742060008201527f6f776e6572000000000000000000000000000000000000000000000000000000602082015250565b7f4552433732313a20746f6b656e20616c7265616479206d696e74656400000000600082015250565b7f5072696365206e6f74206869676820656e6f7567682e00000000000000000000600082015250565b7f4552433732313a207472616e7366657220746f20746865207a65726f2061646460008201527f7265737300000000000000000000000000000000000000000000000000000000602082015250565b7f4552433732313a20617070726f766520746f2063616c6c657200000000000000600082015250565b7f4e4654206e6f7420666f722073616c652e000000000000000000000000000000600082015250565b7f4552433732313a206f70657261746f7220717565727920666f72206e6f6e657860008201527f697374656e7420746f6b656e0000000000000000000000000000000000000000602082015250565b7f4d61726b6574206973206e6f7420616374697665207965742e00000000000000600082015250565b7f4552433732313a20617070726f76652063616c6c6572206973206e6f74206f7760008201527f6e6572206e6f7220617070726f76656420666f7220616c6c0000000000000000602082015250565b7f4552433732313a2062616c616e636520717565727920666f7220746865207a6560008201527f726f206164647265737300000000000000000000000000000000000000000000602082015250565b7f4552433732313a206f776e657220717565727920666f72206e6f6e657869737460008201527f656e7420746f6b656e0000000000000000000000000000000000000000000000602082015250565b7f4552433732313a206d696e7420746f20746865207a65726f2061646472657373600082015250565b7f4552433732313a20617070726f76656420717565727920666f72206e6f6e657860008201527f697374656e7420746f6b656e0000000000000000000000000000000000000000602082015250565b7f4575744d757369633a206e6f6e6578697374656e7420746f6b656e2e00000000600082015250565b7f4f776e61626c653a2063616c6c6572206973206e6f7420746865206f776e6572600082015250565b7f4552433732314d657461646174613a2055524920717565727920666f72206e6f60008201527f6e6578697374656e7420746f6b656e0000000000000000000000000000000000602082015250565b7f4575744d757369633a20434f20646f6573206e6f74206f776e2074686973207460008201527f6f6b656e00000000000000000000000000000000000000000000000000000000602082015250565b7f4552433732313a20617070726f76616c20746f2063757272656e74206f776e6560008201527f7200000000000000000000000000000000000000000000000000000000000000602082015250565b7f4552433732313a207472616e736665722063616c6c6572206973206e6f74206f60008201527f776e6572206e6f7220617070726f766564000000000000000000000000000000602082015250565b613e378161365a565b8114613e4257600080fd5b50565b613e4e8161366c565b8114613e5957600080fd5b50565b613e6581613678565b8114613e7057600080fd5b50565b613e7c816136c4565b8114613e8757600080fd5b5056fea26469706673582212204660b008da55a0abea86c41777364dd56905016b58cf61b218900a9a1267928464736f6c63430008040033",
  "immutableReferences": {},
  "source": "// SPDX-License-Identifier: MIT\n\n// EutMusic is authored by Eut.io\n// Holds who owns what\n// Contract.balance Holds CO's profit.\n\npragma solidity ^0.8.4;\n\nimport \"@openzeppelin/contracts/utils/Context.sol\";\nimport \"@openzeppelin/contracts/utils/math/SafeMath.sol\";\nimport \"@openzeppelin/contracts/utils/Address.sol\";\nimport \"@openzeppelin/contracts/utils/structs/EnumerableSet.sol\";\nimport \"@openzeppelin/contracts/utils/structs/EnumerableMap.sol\";\nimport \"@openzeppelin/contracts/utils/Strings.sol\";\nimport \"@openzeppelin/contracts/access/Ownable.sol\";\n\nimport \"@openzeppelin/contracts/utils/introspection/IERC165.sol\";\nimport \"@openzeppelin/contracts/utils/introspection/ERC165.sol\";\nimport \"@openzeppelin/contracts/token/ERC721/IERC721.sol\";\nimport \"@openzeppelin/contracts/token/ERC721/ERC721.sol\";\n\n\n/**\n * @title EutMusic contract\n * @dev Extends ERC721 Non-Fungible Token Standard basic implementation\n */\ncontract EutMusic is ERC721, Ownable {\n    using SafeMath for uint256;\n\n    string public constant musicTokenSymbol = \"ETH\";\n    bool public marketIsActive = false;\n    mapping (uint => uint) public _tokenPrices;\n\n    string private _baseURIStr;\n    uint256 private _nextTokenID;\n\n    // Events\n    event newTokenMinted (uint indexed _tokenId);\n    event newOrderGenerated (uint indexed _tokenId, uint indexed price);\n\n    constructor(string memory _name, uint256 saleStart) ERC721(_name, musicTokenSymbol) {\n        flipMarketState();\n        _nextTokenID = saleStart;\n    }\n\n    // Withdraw all money in this account to the account owner. \n    function withdraw() public onlyOwner {\n        uint balance = address(this).balance;\n        payable(msg.sender).transfer(balance);\n    }\n\n    function setBaseURI(string memory baseURI) public onlyOwner {\n        _baseURIStr = baseURI;\n    }\n    function _baseURI() internal view virtual override returns (string memory) {\n        return _baseURIStr;\n    }\n\n    function flipMarketState() public onlyOwner {\n        marketIsActive = !marketIsActive;\n    }\n\n    // Mint new NFT (by contract owner only).\n    function mintNewToken() public onlyOwner payable {\n        require(marketIsActive, \"Market is not active yet.\");\n        uint tokenId = _nextTokenID; // Current watermark\n        _safeMint(msg.sender, tokenId);\n        _tokenPrices[tokenId] = 0; // Not for sale until otherwise.\n        unchecked {\n            ++_nextTokenID;\n        }\n        emit newTokenMinted(tokenId);\n    }\n\n    function getEutMusicUrl(uint256 tokenId) public view returns (string memory)  {\n        return tokenURI(tokenId);\n    }\n\n    function getOwnerByTokenId(uint256 tokenId) public view returns (address) {\n        return ownerOf(tokenId);\n    }\n\n    function getPriceByTokenId(uint tokenId) public view returns (uint) {\n        return _tokenPrices[tokenId];\n    }\n\n    // EUT SPECIFIC Transaction Functions\n    // Airdrop the NFT. Applies only to the music whose owner is the contract owner.  \n    function airDropInitialOwner(address _to, uint256 tokenId) public onlyOwner {\n        require(marketIsActive, \"Market is not active yet.\");\n        require(_exists(tokenId), \"EutMusic: nonexistent token.\");\n        require(msg.sender ==getOwnerByTokenId(tokenId), \"EutMusic: CO does not own this token\");\n        _transfer(msg.sender, _to, tokenId);\n    }\n\n    function placeSecondaryMarketOrder(uint tokenId, uint price) public {\n        require(marketIsActive, \"Market is not active yet.\");\n        require(_exists(tokenId), \"EutMusic: nonexistent token.\");\n        require(msg.sender == getOwnerByTokenId(tokenId), \"Only the owner could sell.\");\n        _tokenPrices[tokenId] = price;\n        emit newOrderGenerated(tokenId, price);\n    }\n\n    function updateOrderPriceByContractOwner(uint tokenId, uint price) public onlyOwner {\n        require(marketIsActive, \"Market is not active yet.\");\n        require(_exists(tokenId), \"EutMusic: nonexistent token.\");\n        _tokenPrices[tokenId] = price;\n    }\n\n    function cancelOrderByContractOwner(uint tokenId) public onlyOwner {\n        require(marketIsActive, \"Market is not active yet.\");\n        require(_exists(tokenId), \"EutMusic: nonexistent token.\");\n        _tokenPrices[tokenId] = 0;\n    }    \n\n    // Fulfillment of a secondary market order. \n    function acceptSecondaryMarketOrder(uint tokenId) public payable {\n        require(marketIsActive, \"Market is not active yet.\");\n        address buyer = msg.sender;\n        address seller = getOwnerByTokenId(tokenId);\n        require(_exists(tokenId), \"EutMusic: nonexistent token.\");\n        require(_tokenPrices[tokenId] != 0, \"NFT not for sale.\");\n        require(msg.value >= _tokenPrices[tokenId], \"Price not high enough.\");\n        _transfer(seller, buyer, tokenId);\n        _tokenPrices[tokenId] = 0;\n        payable(seller).transfer(msg.value);\n    }\n}",
  "sourcePath": "/home/yudi/EUT/contracts/EutMusic.sol",
  "compiler": {
    "name": "solc",
    "version": "0.8.4+commit.c7e474f2.Emscripten.clang"
  },
  "schemaVersion": "3.4.7",
  "updatedAt": "2022-06-10T15:58:12.864Z",
  "devdoc": {
    "details": "Extends ERC721 Non-Fungible Token Standard basic implementation",
    "kind": "dev",
    "methods": {
      "approve(address,uint256)": {
        "details": "See {IERC721-approve}."
      },
      "balanceOf(address)": {
        "details": "See {IERC721-balanceOf}."
      },
      "getApproved(uint256)": {
        "details": "See {IERC721-getApproved}."
      },
      "isApprovedForAll(address,address)": {
        "details": "See {IERC721-isApprovedForAll}."
      },
      "name()": {
        "details": "See {IERC721Metadata-name}."
      },
      "owner()": {
        "details": "Returns the address of the current owner."
      },
      "ownerOf(uint256)": {
        "details": "See {IERC721-ownerOf}."
      },
      "renounceOwnership()": {
        "details": "Leaves the contract without owner. It will not be possible to call `onlyOwner` functions anymore. Can only be called by the current owner. NOTE: Renouncing ownership will leave the contract without an owner, thereby removing any functionality that is only available to the owner."
      },
      "safeTransferFrom(address,address,uint256)": {
        "details": "See {IERC721-safeTransferFrom}."
      },
      "safeTransferFrom(address,address,uint256,bytes)": {
        "details": "See {IERC721-safeTransferFrom}."
      },
      "setApprovalForAll(address,bool)": {
        "details": "See {IERC721-setApprovalForAll}."
      },
      "supportsInterface(bytes4)": {
        "details": "See {IERC165-supportsInterface}."
      },
      "symbol()": {
        "details": "See {IERC721Metadata-symbol}."
      },
      "tokenURI(uint256)": {
        "details": "See {IERC721Metadata-tokenURI}."
      },
      "transferFrom(address,address,uint256)": {
        "details": "See {IERC721-transferFrom}."
      },
      "transferOwnership(address)": {
        "details": "Transfers ownership of the contract to a new account (`newOwner`). Can only be called by the current owner."
      }
    },
    "title": "EutMusic contract",
    "version": 1
  },
  "userdoc": {
    "kind": "user",
    "methods": {},
    "version": 1
  }
}