{
  "contractName": "EutMusicMarket",
  "abi": [
    {
      "inputs": [],
      "stateMutability": "nonpayable",
      "type": "constructor"
    },
    {
      "inputs": [],
      "name": "nftItemCount",
      "outputs": [
        {
          "internalType": "uint256",
          "name": "",
          "type": "uint256"
        }
      ],
      "stateMutability": "view",
      "type": "function"
    },
    {
      "inputs": [
        {
          "internalType": "address",
          "name": "",
          "type": "address"
        }
      ],
      "name": "nft_ledger",
      "outputs": [
        {
          "internalType": "address",
          "name": "",
          "type": "address"
        }
      ],
      "stateMutability": "view",
      "type": "function"
    },
    {
      "inputs": [
        {
          "internalType": "address",
          "name": "",
          "type": "address"
        }
      ],
      "name": "ownership_ledger",
      "outputs": [
        {
          "internalType": "address",
          "name": "",
          "type": "address"
        }
      ],
      "stateMutability": "view",
      "type": "function"
    },
    {
      "inputs": [
        {
          "internalType": "address",
          "name": "",
          "type": "address"
        }
      ],
      "name": "ownership_transaction_history",
      "outputs": [
        {
          "internalType": "address",
          "name": "nft_address",
          "type": "address"
        },
        {
          "internalType": "uint256",
          "name": "price",
          "type": "uint256"
        },
        {
          "internalType": "uint256",
          "name": "last_transaction_time",
          "type": "uint256"
        },
        {
          "internalType": "uint256",
          "name": "watermark",
          "type": "uint256"
        }
      ],
      "stateMutability": "view",
      "type": "function"
    }
  ],
  "bytecode": "0x608060405234801561001057600080fd5b5061031e806100206000396000f3fe608060405234801561001057600080fd5b506004361061004c5760003560e01c80631e3056641461005157806389584480146100815780639c1f6099146100b1578063c044e384146100cf575b600080fd5b61006b600480360381019061006691906101d3565b610102565b604051610078919061021a565b60405180910390f35b61009b600480360381019061009691906101d3565b610135565b6040516100a8919061021a565b60405180910390f35b6100b9610168565b6040516100c6919061027a565b60405180910390f35b6100e960048036038101906100e491906101d3565b61016e565b6040516100f99493929190610235565b60405180910390f35b60016020528060005260406000206000915054906101000a900473ffffffffffffffffffffffffffffffffffffffff1681565b60006020528060005260406000206000915054906101000a900473ffffffffffffffffffffffffffffffffffffffff1681565b60035481565b60026020528060005260406000206000915090508060000160009054906101000a900473ffffffffffffffffffffffffffffffffffffffff16908060010154908060020154908060030154905084565b6000813590506101cd816102d1565b92915050565b6000602082840312156101e557600080fd5b60006101f3848285016101be565b91505092915050565b61020581610295565b82525050565b610214816102c7565b82525050565b600060208201905061022f60008301846101fc565b92915050565b600060808201905061024a60008301876101fc565b610257602083018661020b565b610264604083018561020b565b610271606083018461020b565b95945050505050565b600060208201905061028f600083018461020b565b92915050565b60006102a0826102a7565b9050919050565b600073ffffffffffffffffffffffffffffffffffffffff82169050919050565b6000819050919050565b6102da81610295565b81146102e557600080fd5b5056fea26469706673582212202970e27c53e2a2d13dfbe94ad8f3433a52cada02f44e19f0aacde710cad3a86b64736f6c63430008040033",
  "immutableReferences": {},
  "source": "// SPDX-License-Identifier: MIT\n\npragma solidity ^0.8.4;\n\n// EUT Master Contract\n// Holds auctions\ncontract EutMusicMarket {\n    // A ledger records on who owns which NFT\n    // user_address => nft_address\n    mapping(address => address) public ownership_ledger;\n\n    // A ledger records which NFT owned by who\n    // nft_address => user_address\n    mapping(address => address) public nft_ledger;\n\n    // Model a purchase transaction event\n    struct PurchaseTransaction {\n        address nft_address;\n        uint price;\n        uint last_transaction_time;\n        uint watermark; //how many times it's been shifted hand\n    }\n\n    // A ledger records who had which transaction\n    mapping(address => PurchaseTransaction) public ownership_transaction_history;\n\n    // Number of total nft recorded\n    uint public nftItemCount;\n\n\n    constructor () {\n        // Pre-populate some questions\n    }\n}",
  "sourcePath": "/home/yudi/EUT/contracts/EutMusicMarket.sol",
  "compiler": {
    "name": "solc",
    "version": "0.8.4+commit.c7e474f2.Emscripten.clang"
  },
  "schemaVersion": "3.4.7",
  "updatedAt": "2022-06-10T15:52:27.055Z",
  "devdoc": {
    "kind": "dev",
    "methods": {},
    "version": 1
  },
  "userdoc": {
    "kind": "user",
    "methods": {},
    "version": 1
  }
}